:10000000B2C1D6C1D5C1D4C1D3C1B0C5D1C1D0C18F
:10001000F7C5CEC1CDC1CCC1CBC1CAC1C9C10000D9
:10002000000000000000002F000000000700070093
:1000300000147F147F1400242A7F2A1200626408AF
:10004000132300364955225000000503000000002C
:100050001C224100000041221C000014083E08142C
:100060000008083E0808000000A06000000808081A
:100070000808000060600000002010080402003E34
:100080005149453E0000427F4000004261514946CF
:10009000002141454B31001814127F1000274545BF
:1000A0004539003C4A4949300001710905030036D1
:1000B0004949493600064949291E000036360000E4
:1000C00000005636000000081422410000141414E9
:1000D00014140000412214080002015109060032E4
:1000E0004959513E007C1211127C007F4949493622
:1000F000003E41414122007F4141221C007F49498D
:100100004941007F09090901003E4149497A007FC0
:100110000808087F0000417F4100002040413F0166
:10012000007F08142241007F40404040007F020CC5
:10013000027F007F0408107F003E4141413E007F66
:1001400009090906003E4151215E007F091929462F
:100150000046494949310001017F0101003F40400B
:10016000403F001F2040201F003F4038403F0063B9
:1001700014081463000708700807006151494543DB
:1001800000007F41410000020408102000004141AE
:100190007F00000402010204004040404040000093
:1001A00001020400002054545478007F484444382D
:1001B00000384444442000384444487F00385454B4
:1001C000541800087E0901020018A4A4A47C007F32
:1001D000080404780000447D4000004080847D00D5
:1001E000007F102844000000417F4000007C04187C
:1001F0000478007C0804047800384444443800FC47
:10020000242424180018242418FC007C0804040862
:1002100000485454542000043F444020003C4040D7
:10022000207C001C2040201C003C4030403C00440E
:1002300028102844001CA0A0A07C004464544C4416
:100240000008364141000000007F000000004141ED
:100250003608000804081008C8A1A81FDA028D1487
:100260002D2D2054696E794C6F6164202076302EDC
:100270003720202D2D5475726E20504F5449206622
:10028000756C6C204343572C2020636F6E6E656342
:100290007420746865206C6F616420616E642070E6
:1002A000726573732053455420627574746F6E2E9B
:1002B0002020202000206D41680043617061636947
:1002C00074793A00206D576800456E657267793A17
:1002D000202000204F00526573697374616E63655E
:1002E0003A00205700506F7765723A202020202076
:1002F0000020410043757272656E743A2020200020
:10030000205600566F6C746167653A2020200021EA
:100310002121212120205741524E494E47202021A2
:1003200021212121596F7520726561636865642000
:100330006D617820706F7765726F722074656D7073
:100340006572617475726520212020202020212192
:1003500021204445435245415345204C4F414420C0
:1003600021212100E70811241FBECFE5D2E0DEBF26
:10037000CDBF10E0A0E6B0E0ECEFF6E102C00590E2
:100380000D92A438B107D9F720E0A4E8B0E001C08D
:100390001D92A93DB207E1F711E0C3EBD1E003C024
:1003A0002197FE01A3D9C23BD107D1F72AD4A4C912
:1003B00027CE3FB7F8948091CF009091D000A091C4
:1003C000D100B091D20022B708B601FE05C02F3F80
:1003D00019F00196A11DB11D3FBFBA2FA92F982F6B
:1003E0008827BC01CD01620F711D811D911D42E066
:1003F000660F771F881F991F4A95D1F708958F922E
:100400009F92AF92BF92CF92DF92EF92FF924B01F9
:100410005C01CFDF6B017C01CCDF6C197D098E099B
:100420009F09683E734081059105B0F321E0821A6F
:100430009108A108B10888EEC80E83E0D81EE11C1F
:10044000F11C81149104A104B10431F7FF90EF90E5
:10045000DF90CF90BF90AF909F908F900895AF9214
:10046000BF92CF92DF92EF92FF920F931F93CF93A1
:10047000DF936C017B018B01040F151FEB015E0103
:10048000AE18BF08C017D10759F06991D601ED9198
:10049000FC910190F081E02DC6010995892B79F737
:1004A000C501DF91CF911F910F91FF90EF90DF90E9
:1004B000CF90BF90AF900895E0919A00F0919B008B
:1004C0000994E0919800F09199000994E0919C00C2
:1004D000F0919D00099580E4F4CFE0919C00F091AB
:1004E0009D00099580E0EDCFCF93C091620080E23E
:1004F000C827C0936200F1DF8C2FE3DFDDDF80913E
:10050000610094E0892780936100CF9108951F9343
:10051000CF93DF93C82F162FD62FD770809161000D
:10052000D82BDBDF8D2FCDDF8C2F82958F708061F4
:10053000C8DF8C2F8F70C5DFBFDFC093D40010934E
:10054000D300DF91CF911F9108950F931F93CF9305
:10055000DF93C0E010E86C2F80E0D9DF8091D400F9
:10056000012F081B81F01093D400B0DFD0E080E0B1
:10057000A8DF811104C0A0DFA9DF80E0A2DFDF5F78
:100580000D13F5CF99DFCF5FC43029F760E080E02D
:10059000DF91CF911F910F91BACF8091D300860F39
:1005A00024E030E0261B31098217130609F034F4E9
:1005B0008093D3006091D30080E0A9CF84E0861BB4
:1005C000F7CFAF92BF92CF92DF92EF92FF920F934D
:1005D0001F93CF93DF93E091A000F091A10030979B
:1005E00041F06D3031F0D62FC3816A3079F46C2F31
:1005F000D4DF81E090E0DF91CF911F910F91FF90C8
:10060000EF90DF90CF90BF90AF900895A28040917F
:10061000D400EA2CF12C20E830E02E193F094217D3
:10062000130619F014F06C2FB8DFE091A000F091E0
:10063000A10024818C2F90E0B7010CD8BC014D2F74
:10064000421B550BCA0106D88C01BC2E3FDFC801E6
:10065000282F201B2A15C0F46C015FEFC51AD50A9C
:10066000E091A000F091A1000190F081E02DE80F51
:10067000F91FD4918D2F25DF811104C01DDF26DFE6
:100680008D2F1FDFC601E4CF0E0D1F1D15DF8091DA
:10069000D400C13039F48A0D8093D400BA94B110DB
:1006A000D5CFA7CF6091D3006F5F91E09B1510F479
:1006B0002EDFF4CF6C1B8A0DFBCF0F931F93CF93CC
:1006C000DF938C01D0E0C0E0F801EC0FFD1F6491D6
:1006D000662339F085ED90E074DF892B11F02196C7
:1006E000F3CFCE01DF91CF911F910F91089508951F
:1006F00090E080E00895CF93C42F96B1906996B9A9
:100700008650863009F48CE0982F962B97B96111AA
:1007100002C08C3029F461E070E080E090E06FDE90
:1007200085B7877E886085BF20E090E080E035B7A0
:10073000306235BF889535B73F7D35BF3699FECFDE
:1007400044B155B1840F951F2F5FC213F0CFCF91E5
:100750000895CF93DF93EC01FE016491662329F0A5
:1007600085ED90E02EDF2196F7CFDF91CF910895B0
:1007700041E060E086E0BFDF21E08632924008F091
:1007800020E0822F0895E0919600E13148F4EF5F78
:10079000E0939600F0E0EC57FF4F808381E00895EE
:1007A00080E008951092960088E78093840081E0AD
:1007B0000895FC0101900020E9F73197AF01481B33
:1007C000590BBC0185ED90E04ACE8F929F92AF927B
:1007D000BF920F931F93CF93DF93CDB7DEB7A1974F
:1007E0000FB6F894DEBF0FBECDBF19A2423008F499
:1007F0004AE08E010F5D1F4F842E912CB12CA12C4D
:10080000A501940151D7E62FB901CA01EA30ECF4F1
:10081000E05DD801EE938D01232B242B252B81F74E
:1008200090E080E0109711F0CD01C3DFA1960FB6E4
:10083000F894DEBF0FBECDBFDF91CF911F910F9116
:10084000BF90AF909F908F900895E95CE2CFC29ADD
:10085000C29BFECF8AE18A95F1F700C0C09885E17E
:100860008A95F1F70000C298C09A779905C083E095
:100870008093970080E0089581E008958EB98BE21F
:100880009AE19A95F1F700C08DB9B29BFECF95E140
:100890009A95F1F700008DB9769BF2CF8AE18A959F
:1008A000F1F700C08FB19FEF9FB9B89A0895CF922A
:1008B000DF92EF92FF920F931F93CF93DF930091FC
:1008C000960081E0809397008091840080FD03C0B2
:1008D00083E080939700BBDF882311F10F5F102F17
:1008E000C4E8D0E0DD24DA94CC24C3947E018FEFF9
:1008F000E81AF80A80919700837009F44AC0C298F8
:1009000088818FB980EFBADFB8988EEFB7DF90910A
:10091000970080FF12C081E090FF82E080939700F3
:100920001092960080919700DF91CF911F910F91C7
:10093000FF90EF90DF90CF900895892F85708430DD
:1009400061F480918400816080938400C09297005C
:100950007EDF81112AC08AE0E1CF9E7F90939700CD
:10096000E701115009F0C2CF10929600C098C29AC8
:10097000B29BFECF85E18A95F1F70000C09A8AE12B
:100980008A95F1F700C0759914C084E080939700B0
:10099000CBCFB89880EF72DF8883113021F4DFB8B5
:1009A0008EEF6CDFDDCF1FB8FBCF102FC4E8D0E097
:1009B000D8CF80E0B9CFC09AC29ABA9AB89A8FEFCE
:1009C0008FB98AE28DB980EF8EB9ECDE70DF8823B3
:1009D00031F06AE070E080E090E011DDF6CF08953C
:1009E0008F929F92AF92BF92CF92DF92EF92FF923F
:1009F0002AE037ED43EA5BE30CD46B017C01D9D4E8
:100A00004B015C0181149104A104B10421F4812CF7
:100A1000912C5401839480E1881687E29806A10402
:100A2000B10468F485E790E0C4DE2AE030E040E0FD
:100A300050E0C501B4011FD64B015C01ECCFA7010A
:100A40009601C701B60102D6882359F087E790E0E6
:100A5000FF90EF90DF90CF90BF90AF909F908F90DE
:100A6000A8CE46015701E894B7F82FEF3FEF4FE7C4
:100A70005FE7C501B401EAD581110CC02FEF3FEF4C
:100A80004FE75FE7C501B40128D418161CF48BE7C3
:100A900090E0DECF2FEF3FEF4FE75FE4C701B601F5
:100AA00066D518161CF48FE790E0D2CF2FEF3FEFFA
:100AB0004FE75FECC701B60110D487FDF4CF20E00B
:100AC00030E0A901C701B60108D487FF08C06DE274
:100AD00085ED90E076DDF7FAF094F7F8F0942AE0EF
:100AE00037ED43EA5BE3C701B60193D34B015C01E9
:100AF00060D46B017C0189D49B01AC01C501B401B8
:100B000087D34B015C014AE0C701B6015EDE6EE2AD
:100B100085ED90E056DD20E030E040E251E4C50193
:100B2000B40129D54B015C0144D46B01F12CE12CBB
:100B30004AE0C701B60149DEC701B60166D49B0190
:100B4000AC01C501B40164D320E030E040E251E4DF
:100B500012D52FD490E080E04AE0FF90EF90DF9034
:100B6000CF90BF90AF909F908F902FCE1F920F92FB
:100B70000FB60F9211242F933F938F939F93AF93B0
:100B8000BF938091CB009091CC00A091CD00B0910B
:100B9000CE003091CA0023E0230F2D3758F501967F
:100BA000A11DB11D2093CA008093CB009093CC006F
:100BB000A093CD00B093CE008091CF009091D00053
:100BC000A091D100B091D2000196A11DB11D8093DA
:100BD000CF009093D000A093D100B093D200BF91EA
:100BE000AF919F918F913F912F910F900FBE0F90DA
:100BF0001F90189526E8230F0296A11DB11DD2CF94
:100C0000189578948AB582608ABD8AB581608ABD5C
:100C100083B7826083BF83B7816083BF89B78260F7
:100C200089BF80B7826080BF80B7816080BF329A01
:100C3000319A309A379A82E087BB18BA87E086B932
:100C400086B1886886B9789440E460E98CE053DD29
:100C50009C0150E040E060E07DEE8AE494E024D521
:100C60003093C5002093C400E0919E00F0919F0056
:100C7000099533DCC8E5D2E090E6E92E92E0F92E42
:100C8000FE011491812F1DDC811104C015DC25DCCF
:100C9000812F17DC2196EC16FD0691F70DDC8FE60F
:100CA00090E09093A1008093A0004FDC16DC8FEAC7
:100CB00008DC02DC8091610094E089278093610068
:100CC00041E060E089E017DD892B89F43EDC60E0DB
:100CD00080E01DDC80E692E03CDD06DC49DD811130
:100CE00006C041E060E089E006DD0597B8F32FB764
:100CF000F8948091CB009091CC00A091CD00B09160
:100D0000CE002FBF8093AE009093AF00A093B000B1
:100D1000B093B10081E08093A20000E010E040E4D5
:100D200060E08CE0E8DC9C0150E040E060E07DEEBB
:100D30008AE494E0B9D469013093C9002093C800D3
:100D400029013A016624772464EB7BE281E190E09B
:100D5000A3019201A9D4E9013093C7002093C600F2
:100D60008090C4009090C500B12CA12C2FEF33E0EF
:100D700040E050E0C501B4017ED4A301920194D4B7
:100D800039013093C3002093C20041E060E089E064
:100D9000B2DC40E48C179D0708F04DC160E889E0A3
:100DA000AADCBC0190E080E030D320E030E849E8E4
:100DB00054E4E1D320E834E44FE25BE492D2609360
:100DC000BE007093BF008093C0009093C10041E0CB
:100DD00060E088E090DC8C179D0708F052C140E489
:100DE00060E888E088DCBC0190E080E00ED320E081
:100DF00030E849E854E4BFD320EA3DE549E85CE443
:100E000070D26093BA007093BB008093BC00909343
:100E1000BD008090BE009090BF00A090C000B09038
:100E2000C100C090BA00D090BB00E090BC00F09030
:100E3000BD00A7019601C501B4019DD36093B60022
:100E40007093B7008093B8009093B90020E030E031
:100E5000A901C701B6018BD318160CF039C1A7013F
:100E60009601C501B4013DD26093B2007093B30006
:100E70008093B4009093B50020E03CE34CE156E44D
:100E80006091B2007091B3008091B4009091B50070
:100E90006ED3181664F480E09CE3ACE1B6E4809372
:100EA000B2009093B300A093B400B093B5002FB7F5
:100EB000F894C090CB00D090CC00E090CD00F090A2
:100EC000CE002FBF4091AE005091AF006091B000B6
:100ED0007091B10046015701841A950AA60AB70A13
:100EE000C501B401C092AE00D092AF00E092B00054
:100EF000F092B1008AD24B015C01C090B600D09054
:100F0000B700E090B800F090B900A701960133D384
:100F100020E030E041E655E4E4D19B01AC01609172
:100F2000AA007091AB008091AC009091AD0071D19E
:100F30006093AA007093AB008093AC009093AD00D7
:100F40002091BA003091BB004091BC005091BD008F
:100F5000C501B40110D320E030E041E655E4C1D131
:100F60009B01AC016091A6007091A7008091A80040
:100F70009091A9004ED16093A6007093A700809332
:100F8000A8009093A90041E060E086E0B4DBEC01AA
:100F90009093A5008093A40020E030E040E85FE358
:100FA000C701B601E4D2181634F0C652D240CB3491
:100FB000D10508F09DC0C19A1092A30020E030E056
:100FC00040E751E46091B6007091B7008091B8009D
:100FD0009091B900CCD2181644F08091A400909161
:100FE000A500865292400A9718F481E08093A300EE
:100FF0008091A200811109C0BBDB882331F0809170
:10100000600091E0892780936000B2DB8093A200AA
:101010009CDA60E080E07BDA8091A300882309F409
:1010200069C08FE093E095DB5FDA0115110509F4E3
:1010300076CEE6D774CE8615970588F460E989E008
:101040005ADBBC0190E080E0E0D16B017C01C5017E
:10105000B401DBD19B01AC01C701B601AACE60E0AF
:1010600089E049DBBC0190E080E0CFD14B015C011D
:10107000B60190E080E0C9D19B01AC01C501B4018B
:1010800098CE2091C2003091C30040E482179307AC
:10109000B0F460E988E02FDBEC016091C40070914E
:1010A000C50090E080E0B1D16B017C01BE0190E011
:1010B00080E0ABD19B01AC01C701B6019CCE60E0E2
:1010C00088E019DBEC016091C8007091C900E9CF9C
:1010D000812C8CE3982E8CE1A82E86E4B82E809289
:1010E000B2009092B300A092B400B092B500C4CE0A
:1010F000C19862CF83E093E0E0DA6091BE00709126
:10110000BF008091C0009091C1006ADC80E093E054
:10111000D4DA61E080E0FBD984EF92E0CEDA60912E
:10112000BA007091BB008091BC009091BD0058DC6A
:1011300081EF92E0C2DA8091600062E0882321F1C1
:1011400080E0E5D985EE92E0B8DA6091B600709162
:10115000B7008091B8009091B90042DC82EE92E035
:10116000ACDA63E080E0D3D986ED92E0A6DA609154
:10117000B2007091B3008091B4009091B50030DC62
:1011800083ED92E09ADA50CF80E0C1D989EC92E009
:1011900094DA6091AA007091AB008091AC009091BC
:1011A000AD001EDC84EC92E088DA63E080E0AFD929
:1011B0008AEB92E082DA6091A6007091A70080919C
:1011C000A8009091A9000CDC85EB92E0DBCFE5ED67
:1011D000F0E01382128287E690E0918380838BEDAA
:1011E00094E090939F0080939E0082ED93E0909313
:1011F0009D0080939C0083EC93E0909399008093F2
:10120000980087E594E090939B0080939A0008955E
:101210005058BB27AA270ED070C161D130F066D1DB
:1012200020F031F49F3F11F41EF456C10EF4E09506
:10123000E7FB4CC1E92F72D180F3BA17620773073D
:101240008407950718F071F49EF58AC10EF4E095B5
:101250000B2EBA2FA02D0B01B90190010C01CA0170
:10126000A0011124FF27591B99F0593F50F4503E1B
:1012700068F11A16F040A22F232F342F4427585F0D
:10128000F3CF469537952795A795F0405395C9F725
:101290007EF41F16BA0B620B730B840BBAF09150DD
:1012A000A1F0FF0FBB1F661F771F881FC2F70EC07C
:1012B000BA0F621F731F841F48F48795779567954F
:1012C000B795F7959E3F08F0B3CF9395880F08F038
:1012D0009927EE0F979587950895D4D008F481E06B
:1012E00008950CD00AC102D140F0F9D030F021F4B9
:1012F0005F3F19F0EBC0511134C1EEC00FD198F32C
:101300009923C9F35523B1F3951B550BBB27AA2786
:1013100062177307840738F09F5F5F4F220F331FF8
:10132000441FAA1FA9F333D00E2E3AF0E0E830D0C4
:1013300091505040E695001CCAF729D0FE2F27D0C7
:10134000660F771F881FBB1F261737074807AB0795
:10135000B0E809F0BB0B802DBF01FF2793585F4F0A
:101360002AF09E3F510568F0B1C0FBC05F3FECF32F
:10137000983EDCF3869577956795B795F7959F5FCF
:10138000C9F7880F911D9695879597F90895E1E023
:10139000660F771F881FBB1F621773078407BA0782
:1013A00020F0621B730B840BBA0BEE1F88F7E095DD
:1013B0000895BCD088F09F5790F0B92F9927B75166
:1013C000A0F0D1F0660F771F881F991F1AF0BA9509
:1013D000C9F712C0B13081F0C3D0B1E00895C0C0E8
:1013E000672F782F8827B85F39F0B93FCCF38695FF
:1013F00077956795B395D9F73EF49095809570955C
:1014000061957F4F8F4F9F4F0895E89409C097FBD8
:101410003EF490958095709561957F4F8F4F9F4FCB
:101420009923A9F0F92F96E9BB279395F69587950F
:1014300077956795B795F111F8CFFAF4BB0F11F4D2
:1014400060FF1BC06F5F7F4F8F4F9F4F16C0882379
:1014500011F096E911C0772321F09EE8872F762FAF
:1014600005C0662371F096E8862F70E060E02AF0F0
:101470009A95660F771F881FDAF7880F96958795DC
:1014800097F90895990F0008550FAA0BE0E8FEEFB1
:1014900016161706E807F907C0F012161306E40738
:1014A000F50798F0621B730B840B950B39F40A2631
:1014B00061F0232B242B252B21F408950A2609F40F
:1014C000A140A6958FEF811D811D089597F99F6713
:1014D00080E870E060E008959FEF80EC08950024BC
:1014E0000A941616170618060906089500240A9489
:1014F00012161306140605060895092E0394000C0F
:1015000011F4882352F0BB0F40F4BF2B11F460FF9D
:1015100004C06F5F7F4F8F4F9F4F089557FD9058C6
:10152000440F551F59F05F3F71F04795880F97FBA7
:10153000991F61F09F3F79F0879508951216130661
:101540001406551FF2CF4695F1DF08C01616170690
:101550001806991FF1CF86957105610508940895C5
:10156000E894BB2766277727CB0197F908958ADF90
:1015700008F48FEF08950AD0C0CFB1DF28F0B6DFAE
:1015800018F0952309F0A2CFA7CFEBCFC7DFA8F3C0
:101590009923D9F35523C9F3950F50E0551FAA2776
:1015A000EE27FF27BB2700240894679520F4E20F5D
:1015B000F31FB41F0A1E220F331F441FAA1F669574
:1015C000A9F7779530F4F30FB41F0A1E121E08F422
:1015D0006395330F441FAA1F221F769599F78795AD
:1015E00020F4B40F0A1E121E631F440FAA1F221FED
:1015F000331F8695A9F7862F712D602D11249F57D3
:1016000050408AF0E1F088234AF0EE0FFF1FBB1F25
:10161000661F771F881F91505040A9F79E3F5105C4
:1016200070F054CF9ECF5F3FECF3983EDCF386958D
:1016300077956795B795F795E7959F5FC1F7FE2B6F
:10164000880F911D9695879597F908951BDF880B54
:10165000990B08950024552704C0080E591F880FC0
:10166000991F009729F076956795B8F37105B9F73A
:10167000802D952F0895EE27FF27AA27BB2708C0A6
:10168000A20FB31FE41FF51F220F331F441F551F66
:10169000969587957795679598F37040A9F7009789
:1016A00099F7BD01CF010895A1E21A2EAA1BBB1B19
:1016B000FD010DC0AA1FBB1FEE1FFF1FA217B3071E
:1016C000E407F50720F0A21BB30BE40BF50B661F34
:1016D000771F881F991F1A9469F7609570958095F8
:1016E00090959B01AC01BD01CF010895EE0FFF1F46
:0C16F0000590F491E02D0994F894FFCFD0
:1016FC0001B04000000000E1022F02780377031EC6
:10170C00000601207E20006E616E00696E66006F1F
:04171C0076660000ED
:00000001FF
