:100000008AC199C198C197C196C195C194C193C144
:1000100094C291C193C28FC18EC18DC18CC10000A9
:1000200000000000002F00000007000700147F14EC
:100030007F14242A7F2A122313086462364955222A
:10004000500005030000001C2241000041221C005A
:1000500014083E081408083E08080000A0600008C4
:1000600008080808006060000020100804023E51E3
:1000700049453E00427F4000426151494621414589
:100080004B311814127F1027454545393C4A4949E0
:100090003001710905033649494936064949291E87
:1000A00000363600000056360000081422410014C5
:1000B0001414141400412214080201510906324993
:1000C00059513E7C1211127C7F494949363E4141CB
:1000D00041227F4141221C7F494949417F09090949
:1000E000013E4149497A7F0808087F00417F41006D
:1000F0002040413F017F081422417F404040407F23
:10010000020C027F7F0408107F4E7101714E7F093F
:100110000909063E4151215E7F0919294646494990
:10012000493101017F01013F4040403F1F204020F5
:100130001F3F4038403F63140814630708700807E6
:100140006151494543007F414100020408102000ED
:1001500041417F0004020102044040404040000150
:1001600002040020545454787F48444438384444AE
:100170004420384444487F3854545418087E0901B8
:100180000218A4A4A47C7F0804047800447D4000E5
:100190004080847D007F1028440000417F40007C27
:1001A000041804787C080404783844444438FC2457
:1001B00024241818242418FC7C08040408485454E7
:1001C0005420043F4440203C4040207C1C204020E0
:1001D0001C3C4030403C44281028441CA0A0A07C7B
:1001E0004464544C44083641410000007F00000044
:1001F000414136080804081008FFFFFFFFFF1027E1
:10020000E80364000A000100C8A1A81FDA028D14E7
:10021000AF206D4168004368617267653A20200035
:10022000206D576800456E657267793A202000207E
:100230004F00526573697374616E63653A002057AD
:1002400000506F7765723A20202020200020410066
:1002500043757272656E743A202020002056005655
:100260006F6C746167653A202020002121212121D3
:1002700020205741524E494E472020212121212143
:10028000596F752072656163686564206D617820BF
:10029000706F77657220206F722074656D70657263
:1002A0006174757265202120202021212120444580
:1002B000435245415345204C4F41442021212100C8
:1002C0002D2D2054696E794C6F6164202076312E7B
:1002D0003220202D2D5475726E20706F7469206647
:1002E000756C6C204343572C2020636F6E6E6563E2
:1002F0007420746865206C6F616420616E64207086
:10030000726573732053455420627574746F6E2E3A
:1003100020202020000011241FBECFE5D2E0DEBF48
:10032000CDBF20E0A0E6B0E001C01D92A636B20726
:10033000E1F729D1B4C564CEB89ABA98B8980895AF
:1003400098E087FF02C0B89801C0B89ABA98BA9AE4
:10035000880F9150B1F7B898BA98BA9A0895B89A98
:10036000BA9A88E7EDCFCF93C82FF9DF80E0E8DFB6
:1003700080E0E6DF80E1E4DF8C2F8770806BE0DFD8
:10038000DBDF10926500C0936400CF9108950F9356
:100390001F93CF93DF93082E000C990B80978C014D
:1003A000000F111F000F111F080F191F80E0C8DF79
:1003B000C0E0D0E0F801EC0FFD1FE25EFF4F84913A
:1003C000BFDF2196C530D105A9F7809165008A5F0E
:1003D000809365008B3770F0AFDF809164008F5F92
:1003E00080936400C0DFBBDF80E4DF91CF911F9179
:1003F0000F91A6CFDF91CF911F910F910895CF92CA
:10040000DF92EF92FF920F931F93CF93DF932AE037
:1004100037ED43EA5BE32AD36B017C01F3D38B0115
:1004200080E090E01BD49B01AC01C701B6011DD355
:1004300020E030E048EC52E4A3D4E4D3C62F8FDFB1
:1004400080E47EDF8EEFE82E81E0F82ED12CD0E024
:10045000F7012591349180E00217130730F08F5F88
:10046000021B130BDD24D394F7CFD11002C0D4307C
:1004700011F4805D01C080E28ADFDF5F82E0E80E78
:10048000F11CD53029F78EE282DF80E0CA3018F007
:100490008F5FCA50FBCF805D7ADF80E38C0F77DF00
:1004A000DF91CF911F910F91FF90EF90DF90CF9050
:1004B00043CFCF93DF93EC0152DF80E441DFFE01B5
:1004C0008491882319F063DF2196F9CFDF91CF91D2
:1004D00033CF96B1906996B9982F9F70962B97B9A4
:1004E000611102C08C3031F483EF91E00197F1F794
:1004F00000C0000085B7877E886085BF80E090E0FF
:10050000442379F025B7206225BF889525B72F7D34
:1005100025BF3699FECF24B135B1820F931F4150CC
:10052000EFCF089541E060E080E0D3DF21E0863244
:10053000924008F020E0822F089518951F920F92A4
:100540000FB60F9211248F939F93AF93BF93809117
:10055000600090916100A0916200B09163000196EB
:10056000A11DB11D8093600090936100A093620073
:10057000B0936300BF91AF919F918F910F900FBE89
:100580000F901F901895CF93DF93CDB7DEB76E977E
:100590000FB6F894DEBF0FBECDBFB99AA59AA39A45
:1005A000A49A8CE789BD82E08ABD83BF80E189BFC0
:1005B0008BE886B9D4DE80E0C3DE28E032E03A83FF
:1005C0002983E981FA818491BBDE29813A812F5FF9
:1005D0003F4F3A8329832151324099F7ADDE789419
:1005E00040E460E98CE075DF9C0140E050E060E0B1
:1005F0007DEE8AE494E017D249015A01790119820B
:100600008981B1DEACDE80E49BDE50E85D8380E072
:1006100097DE8D8181508D838111F9CF8DDE998197
:100620009F5F9983943061F780E09DDE80EC92E0DB
:1006300040DF78DF811106C041E060E882E049DFF9
:100640000A97B8F3F8948091600090916100A091AE
:100650006200B091630089839A83AB83BC837894F2
:10066000C501B401882799272FEF33E040E050E01F
:10067000C1D1698F7A8F8B8F9C8F91E09D8FA1E084
:10068000AE8F1D861E861F86188A19861A861B86BF
:100690001C86970140E050E02D8B3E8B4F8B588F8E
:1006A00040E460E08CE015DF9C0140E050E060E059
:1006B0007DEE8AE494E0B7D169017A0149015A01DB
:1006C000AA24BB2464EB7BE281E190E0A5019401C4
:1006D000AAD13901698D7A8D8B8D9C8DA5019401EC
:1006E000A2D1890141E060E083E0F3DE40E48615B9
:1006F000970560F460E883E0ECDEBC0180E090E008
:10070000ADD220E030E849E854E422C080179107D8
:1007100070F460E983E0DDDEBC0180E090E09ED211
:100720004B015C016D897E898F89988D0CC060E0DA
:1007300083E0CFDEBC0180E090E090D24B015C0111
:10074000B60180E090E08AD29B01AC01C501B40102
:1007500017D320E834E44FE25BE4ECD11B012C0119
:1007600041E060E082E0B5DE40E48615970560F484
:1007700060E882E0AEDEBC0180E090E06FD220E075
:1007800030E849E854E427C08017910798F460E9FD
:1007900082E09FDEBC0180E090E060D26B017C01D2
:1007A0006D897E898F89988D59D29B01AC01C701D3
:1007B000B60111C060E082E08CDEBC0180E090E018
:1007C0004DD24B015C01B60180E090E047D29B0125
:1007D000AC01C501B401D4D220EA3DE549E85CE4AE
:1007E000A9D16B017C019B01AC01C201B101C8D24E
:1007F0004B015C0120E030E0A901C701B601BCD289
:100800001816CCF4A7019601C201B10193D16D83F2
:100810007E838F83988720E03CE34CE156E4ACD2A2
:1008200018168CF480E09CE3ACE1B6E48D839E83E3
:10083000AF83B88708C020E03CE34CE156E42D8349
:100840003E834F835887F894209160003091610077
:100850004091620050916300298B3A8B4B8B5C8BEB
:100860007894CA01B90129813A814B815C81621B6C
:10087000730B840B950BF2D169837A838B839C83F2
:100880009B01AC01C501B4017BD220E030E041E620
:1008900055E450D19B01AC016D857E858F8598898B
:1008A000E5D06D877E878F87988B29813A814B8130
:1008B0005C81C701B60164D220E030E041E655E436
:1008C00039D19B01AC0169857A858B859C85CED019
:1008D00069877A878B879C8741E060E080E0F9DD5B
:1008E0003C0120E030E040E85FE3C501B40144D2C0
:1008F000181634F0C301865292408B34910510F4DF
:10090000C19A01C0C19820E030E040E751E4C50140
:10091000B40132D218165CF036E2631A32E0730A80
:1009200011E04AE06416710418F010E001C011E013
:100930005D8D511103C0F6DD811157C0F3DD8D8F40
:1009400080E011DD112319F08BE692E03EC08FE5C7
:1009500092E0AFDDC201B10152DD8CE592E0A9DD8C
:1009600080E592E0A6DDC701B60149DD8DE492E0A5
:10097000A0DD8E8D8823A1F081E492E09ADDC5018F
:10098000B4013DDD8EE392E094DD82E392E091DDFF
:100990006D817E818F81988532DD8FE292E015C076
:1009A00085E292E086DD6D857E858F85988927DDDD
:1009B00080E292E07EDD86E192E07BDD69857A85EA
:1009C0008B859C851CDD81E192E073DDA3EDB0E3B6
:1009D0001197F1F700C0000029893A894B895C8999
:1009E00029833A834B835C835BCE81E03E8D38273D
:1009F0003E8FA4CFEE27FF27AA27BB2708C0A20F50
:100A0000B31FE41FF51F220F331F441F551F969578
:100A100087957795679598F37040A9F7009799F7B0
:100A2000BD01CF010895A1E21A2EAA1BBB1BFD0137
:100A30000DC0AA1FBB1FEE1FFF1FA217B307E407BD
:100A4000F50720F0A21BB30BE40BF50B661F771F15
:100A5000881F991F1A9469F76095709580959095F5
:100A60009B01AC01BD01CF0108955058BB27AA27B7
:100A70000ED048C139D130F03ED120F031F49F3F43
:100A800011F41EF42EC10EF4E095E7FB24C1E92F0A
:100A90004AD180F3BA17620773078407950718F0E5
:100AA00071F49EF562C10EF4E0950B2EBA2FA02DC5
:100AB0000B01B90190010C01CA01A0011124FF270B
:100AC000591B99F0593F50F4503E68F11A16F04006
:100AD000A22F232F342F4427585FF3CF4695379505
:100AE0002795A795F0405395C9F77EF41F16BA0BCA
:100AF000620B730B840BBAF09150A1F0FF0FBB1F78
:100B0000661F771F881FC2F70EC0BA0F621F731FC0
:100B1000841F48F4879577956795B795F7959E3F1D
:100B200008F0B3CF9395880F08F09927EE0F9795AB
:100B3000879508950CD0E6C0DED040F0D5D030F0D7
:100B400021F45F3F19F0C7C0511110C1CAC0EBD0EA
:100B500098F39923C9F35523B1F3951B550BBB2784
:100B6000AA2762177307840738F09F5F5F4F220F31
:100B7000331F441FAA1FA9F333D00E2E3AF0E0E82A
:100B800030D091505040E695001CCAF729D0FE2F76
:100B900027D0660F771F881FBB1F26173707480708
:100BA000AB07B0E809F0BB0B802DBF01FF279358BE
:100BB0005F4F2AF09E3F510568F08DC0D7C05F3F60
:100BC000ECF3983EDCF3869577956795B795F795A6
:100BD0009F5FC9F7880F911D9695879597F908959E
:100BE000E1E0660F771F881FBB1F6217730784073A
:100BF000BA0720F0621B730B840BBA0BEE1F88F749
:100C0000E095089598D088F09F5790F0B92F9927D4
:100C1000B751A0F0D1F0660F771F881F991F1AF007
:100C2000BA95C9F712C0B13081F09FD0B1E00895F4
:100C30009CC0672F782F8827B85F39F0B93FCCF375
:100C4000869577956795B395D9F73EF490958095FD
:100C5000709561957F4F8F4F9F4F0895E89409C01D
:100C600097FB3EF490958095709561957F4F8F4FDF
:100C70009F4F9923A9F0F92F96E9BB279395F695F5
:100C8000879577956795B795F111F8CFFAF4BB0F73
:100C900011F460FF1BC06F5F7F4F8F4F9F4F16C0D7
:100CA000882311F096E911C0772321F09EE8872F61
:100CB000762F05C0662371F096E8862F70E060E01D
:100CC0002AF09A95660F771F881FDAF7880F969596
:100CD000879597F9089597F99F6780E870E060E03D
:100CE00008959FEF80EC089500240A9416161706C5
:100CF00018060906089500240A941216130614060D
:100D000005060895092E0394000C11F4882352F06F
:100D1000BB0F40F4BF2B11F460FF04C06F5F7F4F27
:100D20008F4F9F4F089557FD9058440F551F59F00E
:100D30005F3F71F04795880F97FB991F61F09F3FC8
:100D400079F087950895121613061406551FF2CFF1
:100D50004695F1DF08C0161617061806991FF1CF41
:100D600086957105610508940895E894BB27662768
:100D70007727CB0197F908956ED008F48FEF089587
:100D80000AD0C0CFB1DF28F0B6DF18F0952309F004
:100D9000A2CFA7CFEBCFC7DFA8F39923D9F3552371
:100DA000C9F3950F50E0551FAA27EE27FF27BB2751
:100DB00000240894679520F4E20FF31FB41F0A1E65
:100DC000220F331F441FAA1F6695A9F7779530F4A9
:100DD000F30FB41F0A1E121E08F46395330F441F4D
:100DE000AA1F221F769599F7879520F4B40F0A1E43
:100DF000121E631F440FAA1F221F331F8695A9F7D7
:100E0000862F712D602D11249F5750408AF0E1F0FC
:100E100088234AF0EE0FFF1FBB1F661F771F881F36
:100E200091505040A9F79E3F510570F054CF9ECF8E
:100E30005F3FECF3983EDCF3869577956795B79521
:100E4000F795E7959F5FC1F7FE2B880F911D96954B
:100E5000879597F90895990F0008550FAA0BE0E8B8
:100E6000FEEF16161706E807F907C0F0121613066C
:100E7000E407F50798F0621B730B840B950B39F4AC
:100E80000A2661F0232B242B252B21F408950A2612
:100E900009F4A140A6958FEF811D811D0895F89456
:020EA000FFCF82
:00000001FF
